:0400000002015A326D
:03000B000201618E
:0600110075750075760014
:03001A0002000ED3
:03000E00020134B8
:20001D00753B41E53D20E7FB60F9153DE53E20E7FB60F9153ED20010AF02C200E57624342A
:20003D00F8A63BAE767F008E828F83A37508038F09120370AE82AF838E76A20092AF053E39
:20005D00053C745AB53B03D38001C39200400BAF3B0FEFFE3395E0FF80047E417F008E3B75
:20007D0080A1753F30E53D20E7FB60F9153DE53E20E7FB60F9153ED20110AF02C201E5760C
:20009D002434F8A63FAE767F008E828F83A37508038F09120370AE82AF838E76A20192AFBF
:2000BD00053E053C7439B53F03D38001C39201400BAF3F0FEFFE3395E0FF80047E307F00C4
:2000DD008E3F80A1C2AF438920758DFA759850D28ED2AFE53C20E7FB60F9153CE53E20E787
:2000FD00FB60F9153ED20210AF02C202E5752434F98799AE757F008E828F83A37508038FA2
:20011D0009120370AE82AF838E75A20292AF053E053D1099BE80FB757701D20310AF02C23E
:20013D0003753D03753C00753E01A20392AF90007F12018890001D1201880200E102016562
:08015D00222222220202833259
:0300170075300041
:2001650075890075A882D28C900134120188858231E5312437F98781D0D0D083D082D0F070
:20018500D0E022D310AF01C3C0D0740FB530067582FF0202137F007E008EF005F07C017DBD
:2001A500008006EC2CFCED33FDD5F0F7AA307B00EA5204EB5205EC4D70168F058DF005F02B
:2001C5007401800225E0D5F0FBFD42308F3380080E8E07BE040040C1E533C454F0FF243FBD
:2001E500F572858171857281C082C0837400C0E0C0E0C0E0C0E0E533FFC40354F8F572C0DA
:2002050072E5332437F8A681857181853382D0D092AF22D310AF01C3C0D0C0E0C0F0C082A9
:20022500C083C0D0E5312437F8A681C3E5319403920440067E007F008009AD310DEDFE337B
:2002450095E0FF8E31AF318FF005F07F017E008006EF2FFFEE33FED5F0F7AC307D00EC52FF
:2002650007ED5206EF4E60C3E5312437F98781D0D0D083D082D0F0D0E0D0D092AF22C2AF32
:20028500C0E0C0F0C082C083C0D0E5312437F8A681E8C0E0E9C0E0EAC0E0EBC0E0ECC0E0B2
:2002A500EDC0E0EEC0E0EFC0E074FD2531400BAF310FEFFE3395E0FF80047E007F008E31BA
:2002C500AF318FF005F07401800225E0D5F0FBFF553060D5D0E0FFD0E0FED0E0FDD0E0FC9A
:2002E500D0E0FBD0E0FAD0E0F9D0E0F8E5312437F98781D0D0D083D082D0F0D0E0D2AF3279
:1E03050022D310AF01C3C0D0E5312437F98781D0D0D083D082D0F0D0E0D0D092AF22A8
:20032300E508450960467A01E50825E0F508E509334012F509E5829508E583950940030AA7
:2003430080E6C3E50913F509E50813F508C3E5829508F5F0E58395094005F58385F082C34C
:0D036300E50913F509E50813F508DAE122B4
:20037000C2D5E58330E70DD2D5E4C39582F582E49583F583E50930E70BE4C39508F508E4C5
:160390009509F50912032330D50BE4C39582F582E49583F58322A8
:00000001FF
