:04000000020079324F
:03000B0002008070
:0300110002000EDC
:03000E0002006D80
:20001400753B41E53C70FCD20010AF02C200853B3A753C01745AB53B067E417F008009AD15
:200034003B0DEDFE3395E0FF8E3BA20092AF80D3C2AF438920758DFA759850D28ED2AFE557
:200054003C60FCD20110AF02C201853A99753C00A20192AF1099E880FB753C00900014123D
:100074000144020044020084222222220200AA3205
:2000840075340075890075A882D28C90006D120144858235E5352430F98781D0D0D083D0F6
:2000A40082D0F0D0E022C2AFC0E0C0F0C082C083C0D0E5352430F8A681E8C0E0E9C0E0EACA
:2000C400C0E0EBC0E0ECC0E0EDC0E0EEC0E0EFC0E074FD2535400BAF350FEFFE3395E0FF1E
:2000E40080047E007F008E35E5357005753901801C7401B5350575390280127402B53505D3
:2001040075390480087403B53503753908E539553460BED0E0FFD0E0FED0E0FDD0E0FCD03C
:20012400E0FBD0E0FAD0E0F9D0E0F8E5352430F98781D0D0D083D082D0F0D0E0D2AF3222EC
:20014400740FB534047582FF22D20210AF02C20275360074FC25364041AF368FF005F07FEB
:20016400017E008006EF2FFFEE33FED5F0F7AC347D00EC5207ED5206EF4E7017AF368FF06F
:2001840005F07401800225E0D5F0FBFF42348536388007E53604F53680B9858137E538C41A
:2001A40054F0FF243FF581C082C0835400C0E0C0E0C0E0C0E0E538FFC40354F8F5D0C0D042
:2001C400E5382430F8A681853781A20292AF85388222D20310AF02C203C0E0C0F0C082C05B
:2001E40083C0D0E5352430F8A68174FD2535400BAF350FEFFE3395E0FF80047E007F008EAF
:2002040035AF358FF005F07F017E008006EF2FFFEE33FED5F0F7AC347D00EC5207ED5206EA
:20022400EF4E60C6E5352430F98781D0D0D083D082D0F0D0E0A20392AF22D20410AF02C2D2
:2002440004AF358FF005F07401800225E0D5F0FBFF623475360074FC2536402FAF368FF0A4
:2002640005F07F017E008006EF2FFFEE33FED5F0F7AC347D00EC5207ED5206EF4E600585FB
:2002840036358007E53604F53680CB7404B536037535FFE5352430F98781D0D0D083D08210
:0B02A400D0F0D0E0D2AFA20492AF2255
:00000001FF
