:040000000201713256
:03000B0002017877
:06001100752500752600B4
:03001A0002000ED3
:03000E0002014E9E
:20001D0012042FE58260F912044185823BD2AF12023AC2AFE53D20E7F460F2153DD2AFD2D1
:20003D00AF12023AC2AFE53E20E7F460F2153ED2AFD20010AF02C200E5262434F8A63BAEB2
:20005D00267F008E828F83A37508038F091205C5AE82AF838E26A20092AF053E053C120492
:20007D002FE582609B80F71204CD1204D3E58260F91204E085823FD2AF12023AC2AFE53D31
:20009D0020E7F460F2153DD2AFD2AF12023AC2AFE53E20E7F460F2153ED2AFD20110AF020B
:2000BD00C201E5262434F8A63FAE267F008E828F83A37508038F091205C5AE82AF838E26FE
:2000DD00A20192AF053E053C1204D3E582609B80F712036D120369E58260F9D2AF12023A4A
:2000FD00C2AFE53C20E7F460F2153CD2AFD2AF12023AC2AFE53E20E7F460F2153ED2AFD2DC
:20011D000210AF02C202E5252434F987821203CCAE257F008E828F83A37508038F091205B0
:20013D00C5AE82AF838E25A20292AF053E053D80A3D20310AF02C203753D03753C00753EC7
:1F015D0001A20392AF90001D1201A39000841201A30200EE02017C222222220202C6327C
:0300170075300041
:20017C0075890075A882D28CE530701A90014E1201A3858231E5312437F98781D0D0D08397
:20019C00D082D0F0D0E022D310AF01C3C0D0740FB530067582FF02023575230074FC25238C
:2001BC004041AF238FF005F07F017E008006EF2FFFEE33FED5F0F7AC307D00EC5207ED5203
:2001DC0006EF4E7017AF238FF005F07401800225E0D5F0FBFF42308523338007E52304F563
:2001FC002380B9E533C454F0FF243FF521858120852181C082C0837400C0E0C0E0C0E0C009
:20021C00E0E533FFC40354F8F521C021E5332437F8A681852081853382D0D092AF22D310E9
:20023C00AF01C3C0D0C0E0C0F0C082C083C0D0E5312437F8A681E8C0E0E9C0E0EAC0E0EB24
:20025C00C0E0ECC0E0EDC0E0EEC0E0EFC0E074FD2531400BAF310FEFFE3395E0FF80047E15
:20027C00007F008E31AF318FF005F07401800225E0D5F0FBF522E522553060D2D0E0FFD0C0
:20029C00E0FED0E0FDD0E0FCD0E0FBD0E0FAD0E0F9D0E0F8E5312437F98781D0D0D083D030
:2002BC0082D0F0D0E0D0D092AF22C2AFC0E0C0F0C082C083C0D0E5312437F8A681E8C0E03F
:2002DC00E9C0E0EAC0E0EBC0E0ECC0E0EDC0E0EEC0E0EFC0E074FD2531400BAF310FEFFE40
:2002FC003395E0FF80047E007F008E31AF318FF005F07401800225E0D5F0FBF522E5225578
:20031C003060D2D0E0FFD0E0FED0E0FDD0E0FCD0E0FBD0E0FAD0E0F9D0E0F8E5312437F999
:20033C008781D0D0D083D082D0F0D0E0D2AF3222D310AF01C3C0D0E5312437F98781D0D017
:0D035C00D083D082D0F0D0E0D0D092AF227C
:20036900852F82221203A275820712038075820F120380752F0122AF82752F0074F05FF5E3
:2003890090D292C292EFC454F0F590D292C29275822812042B752F0122752F00759020D216
:2003A90092C29275822812042BD292C29275822812042BD297D292C29275822812042B75E0
:2003C9002F0122AF82752F0074F05F4408F590D293D292C292EFC454F0FF74084FF590D224
:2003E90092C29275822812042B752F0122AD82AE83AFF08D828E838FF01205A9FCA3AD82BB
:20040900AE83EC601C8D828E838FF01205A9F582C007C006C0051203CCD005D006D007802F
:06042900D222D582FD2263
:20042F0074FFB5A0067E007F0080047E017F008E8222AEA07F00EEF4FEEFF4EE30E7047520
:20044F00823722AEA07F00EEF4FEEFF4EE30E60475823622AEA07F00EEF4FEEFF4EE30E538
:20046F000475823522AEA07F00EEF4FEEFF4EE30E40475823422AEA07F00EEF4FEEFF4EEBA
:20048F0030E30475823322AEA07F00EEF4FEEFF4EE30E20475823222AEA07F00EEF4FEEF6F
:1E04AF00F4EE30E10475823122AEA07F00EEF4FEEFF4EE30E0047582302275820022FA
:2004CD00D2B37580F0227580F0A2B3B39204E433F582227580F774B7B58004758231227442
:2004ED00D7B580047582322274E7B58004758233227580FB74BBB580047582342274DBB50B
:20050D0080047582352274EBB58004758236227580FD74BDB580047582372274DDB58004DF
:20052D007582382274EDB58004758239227580FE74BEB5800475822A2274DEB5800475824E
:0F054D00302274EEB5800475822322758200225D
:20055C00E508450960467A01E50825E0F508E509334012F509E5829508E583950940030A6C
:20057C0080E6C3E50913F509E50813F508C3E5829508F5F0E58395094005F58385F082C311
:0D059C00E50913F509E50813F508DAE12279
:1C05A90020F71430F6148883A88220F507E6A88375830022E280F7E49322E02261
:2005C500C2D5E58330E70DD2D5E4C39582F582E49583F583E50930E70BE4C39508F508E46E
:1605E5009509F50912055C30D50BE4C39582F582E49583F5832216
:00000001FF
