:030000000200708B
:03000900020003EF
:0300030002006494
:20000C00753841E537600512012580F7853836745AB53803D38001C39200400BAF380FEF2C
:20002C00FE3395E0FF80047E417F008E3875370180D1758920758DFA759850D28EE5377026
:20004C000512012580F785369920990512012580F8C29975370080E575370090000C120058
:0E006C009502003E02007A2275340022222204
:030006007534004E
:20007A00900064120095858235E5352430F98781D0D0D083D082D0F0D0E022740FB53404D9
:20009A007582FF22753A0074FC253A4041AF3A8FF005F07F017E008006EF2FFFEE33FED53D
:2000BA00F0F7AC347D00EC5207ED5206EF4E7017AF3A8FF005F07401800225E0D5F0FBFF7C
:2000DA004234853A398007E53A04F53A80B9E539C454F0FF243FF53D85813B853D81C08206
:2000FA00C0837400C0E0C0E0C0E0C0E085D03CE539FFC40354F8F5D0C0D0853CD0E53924C6
:20011A0030F8A681853B8185398222C0E0C0F0C082C083C0D0E5352430F8A681C3E5359470
:20013A0003920140067E007F008009AD350DEDFE3395E0FF8E35AF358FF005F07F017E00A9
:20015A008006EF2FFFEE33FED5F0F7AC347D00EC5207ED5206EF4E60C3E5352430F9878151
:1D017A00D0D0D083D082D0F0D0E022E5352430F98781D0D0D083D082D0F0D0E0224B
:00000001FF
