:040000000200913237
:03000B0002009B55
:0300140002000ED9
:03000E0002008568
:20001700753441E53370FCD20010AF02C200853432753301A20092AF745AB53403D3800181
:20003700C39200400BAF340FEFFE3395E0FF80047E417F008E3480CBC2AF438920758DFA5B
:20005700759850D28ED2AFE53360FCD20110AF02C201853299A20192AF10990280FBD20153
:2000770010AF02C201753300A20192AF80D97533009000171200C202004F02009F22753420
:08009700002222220201CA32FC
:0300110075300047
:20009F0075890075A882D28C9000851200C2858231E5312435F98781D0D0D083D082D0F0B0
:2000BF00D0E022D310AF01C3C0D0740FB530067582FF02015A753E0074FC253E4041AF3EB4
:2000DF008FF005F07F017E008006EF2FFFEE33FED5F0F7AC307D00EC5207ED5206EF4E7081
:2000FF0017AF3E8FF005F07401800225E0D5F0FBFF4230853E3A8007E53E04F53E80B9E540
:20011F003AC454F0FF243FF53D85813B853D81C082C0837400C0E0C0E0C0E0C0E085D03C5C
:20013F00E53AFFC40354F8F5D0C0D0853CD0E53A2435F8A681853B81853A82D0D092AF226D
:20015F00D310AF01C3C0D0C0E0C0F0C082C083C0D0E5312435F8A681C3E531940392024063
:20017F00067E007F008009AD310DEDFE3395E0FF8E31AF318FF005F07F017E008006EF2FA2
:20019F00FFEE33FED5F0F7AC307D00EC5207ED5206EF4E60C3E5312435F98781D0D0D083C0
:2001BF00D082D0F0D0E0D0D092AF22C2AFC0E0C0F0C082C083C0D0E5312435F8A681E8C04F
:2001DF00E0E9C0E0EAC0E0EBC0E0ECC0E0EDC0E0EEC0E0EFC0E0C3E5319403920340067E83
:2001FF00007F008009AD310DEDFE3395E0FF8E31E531FF24FC4020EF2F90021C73800680C2
:20021F0009800C800F753901800D75390280087539048003753908E539553060B9D0E0FFD1
:20023F00D0E0FED0E0FDD0E0FCD0E0FBD0E0FAD0E0F9D0E0F8E5312435F98781D0D0D0838F
:20025F00D082D0F0D0E0D2AF3222D310AF01C3C0D0E5312435F98781D0D0D083D082D0F08D
:07027F00D0E0D0D092AF22C5
:00000001FF
