:040000000200913237
:03000B0002009B55
:0300140002000ED9
:03000E0002008568
:20001700753641E53570FCD20010AF02C200853634753501A20092AF745AB53603D3800175
:20003700C39200400BAF360FEFFE3395E0FF80047E417F008E3680CBC2AF438920758DFA57
:20005700759850D28ED2AFE53560FCD20110AF02C201853499A20192AF10990280FBD2014F
:2000770010AF02C201753500A20192AF80D97535009000171200C202004F02009F2275341C
:08009700002222220201CA32FC
:0300110075300047
:20009F0075890075A882D28C9000851200C2858231E5312437F98781D0D0D083D082D0F0AE
:2000BF00D0E022D310AF01C3C0D0740FB530067582FF02015A753E0074FC253E4041AF3EB4
:2000DF008FF005F07F017E008006EF2FFFEE33FED5F0F7AC307D00EC5207ED5206EF4E7081
:2000FF0017AF3E8FF005F07401800225E0D5F0FBFF4230853E338007E53E04F53E80B9E547
:20011F0033C454F0FF243FF53D85813B853D81C082C0837400C0E0C0E0C0E0C0E085D03C63
:20013F00E533FFC40354F8F5D0C0D0853CD0E5332437F8A681853B81853382D0D092AF2280
:20015F00D310AF01C3C0D0C0E0C0F0C082C083C0D0E5312437F8A681C3E531940392024061
:20017F00067E007F008009AD310DEDFE3395E0FF8E31AF318FF005F07F017E008006EF2FA2
:20019F00FFEE33FED5F0F7AC307D00EC5207ED5206EF4E60C3E5312437F98781D0D0D083BE
:2001BF00D082D0F0D0E0D0D092AF22C2AFC0E0C0F0C082C083C0D0E5312437F8A681E8C04D
:2001DF00E0E9C0E0EAC0E0EBC0E0ECC0E0EDC0E0EEC0E0EFC0E074FD2531400BAF310FEF5C
:2001FF00FE3395E0FF80047E007F008E31E531FF24FC4020EF2F9002197380068009800C8F
:20021F00800F753201800D75320280087532048003753208E532553060BCD0E0FFD0E0FED8
:20023F00D0E0FDD0E0FCD0E0FBD0E0FAD0E0F9D0E0F8E5312437F98781D0D0D083D082D019
:20025F00F0D0E0D2AF3222D310AF01C3C0D0E5312437F98781D0D0D083D082D0F0D0E0D02D
:04027F00D092AF2248
:00000001FF
