:040000000200EF32D9
:03000B000200F6FA
:0600110075750075760014
:03001A0002000ED3
:03000E000200D21B
:20001D00753B41E53D20E7FB60F9153DE53E20E7FB60F9153ED20010AF02C200E57624342A
:20003D00F8A63BAE767F008E828F83A37508038F09120322AE82AF838E76A20092AF053E87
:20005D00053C745AB53B03D38001C39200400BAF3B0FEFFE3395E0FF80047E417F008E3B75
:20007D0080A1C2AF438920758DFA759850D28ED2AFE53C20E7FB60F9153CE53E20E7FB6059
:20009D00F9153ED20110AF02C201E5752434F98799AE757F008E828F83A37508038F091244
:2000BD000322AE82AF838E75A20192AF053E053D1099BE80FBD20210AF02C202753D0375CB
:1D00DD003C00753E01A20292AF90001D12011D02007F0200FA2222222202021E32FB
:0300170075300041
:2000FA0075890075A882D28C9000D212011D858231E5312437F98781D0D0D083D082D0F0AA
:20011A00D0E022D310AF01C3C0D0740FB530067582FF0201AE7F007E008EF005F07C017D8E
:20013A00008006EC2CFCED33FDD5F0F7AA307B00EA5204EB5205EC4D70168F058DF005F096
:20015A007401800225E0D5F0FBFD42308F3380080E8E07BE040040C1E533C454F0FF243F28
:20017A00F573858171857381C082C0837400C0E0C0E0C0E0C0E085D072E533FFC40354F8A3
:20019A00F5D0C0D08572D0E5332437F8A681857181853382D0D092AF22D310AF01C3C0D0FD
:2001BA00C0E0C0F0C082C083C0D0E5312437F8A681C3E5319403920340067E007F0080095F
:2001DA00AD310DEDFE3395E0FF8E31AF318FF005F07F017E008006EF2FFFEE33FED5F0F7F9
:2001FA00AC307D00EC5207ED5206EF4E60C3E5312437F98781D0D0D083D082D0F0D0E0D0AB
:20021A00D092AF22C2AFC0E0C0F0C082C083C0D0E5312437F8A681E8C0E0E9C0E0EAC0E090
:20023A00EBC0E0ECC0E0EDC0E0EEC0E0EFC0E074FD2531400BAF310FEFFE3395E0FF8004CA
:20025A007E007F008E31E5317005753201801C7401B5310575320280127402B53105753256
:20027A000480087403B53103753208E532553060BED0E0FFD0E0FED0E0FDD0E0FCD0E0FBAE
:20029A00D0E0FAD0E0F9D0E0F8E5312437F98781D0D0D083D082D0F0D0E0D2AF3222D3106A
:1B02BA00AF01C3C0D0E5312437F98781D0D0D083D082D0F0D0E0D0D092AF22FC
:2002D500E508450960467A01E50825E0F508E509334012F509E5829508E583950940030AF6
:2002F50080E6C3E50913F509E50813F508C3E5829508F5F0E58395094005F58385F082C39B
:0D031500E50913F509E50813F508DAE12202
:20032200C2D5E58330E70DD2D5E4C39582F582E49583F583E50930E70BE4C39508F508E413
:160342009509F5091202D530D50BE4C39582F582E49583F5832245
:00000001FF
