:040000000200843244
:03000B0002008E62
:0300140002000ED9
:03000E0002007875
:20001700753641E53570FCD20010AF02C200853634753501A20092AF745AB53603D3800175
:20003700C39200400BAF360FEFFE3395E0FF80047E417F008E3680CBC2AF438920758DFA57
:20005700759850D28ED2AFE53560FCD20110AF02C201853499753500A20192AF1099E8808D
:1B007700FB7535009000171200B502004F020092227534002222220201BD3253
:0300110075300047
:2000920075890075A882D28C9000781200B5858231E5312437F98781D0D0D083D082D0F0D5
:2000B200D0E022D310AF01C3C0D0740FB530067582FF02014D753E0074FC253E4041AF3ECE
:2000D2008FF005F07F017E008006EF2FFFEE33FED5F0F7AC307D00EC5207ED5206EF4E708E
:2000F20017AF3E8FF005F07401800225E0D5F0FBFF4230853E338007E53E04F53E80B9E554
:2001120033C454F0FF243FF53D85813B853D81C082C0837400C0E0C0E0C0E0C0E085D03C70
:20013200E533FFC40354F8F5D0C0D0853CD0E5332437F8A681853B81853382D0D092AF228D
:20015200D310AF01C3C0D0C0E0C0F0C082C083C0D0E5312437F8A681C3E53194039202406E
:20017200067E007F008009AD310DEDFE3395E0FF8E31AF318FF005F07F017E008006EF2FAF
:20019200FFEE33FED5F0F7AC307D00EC5207ED5206EF4E60C3E5312437F98781D0D0D083CB
:2001B200D082D0F0D0E0D0D092AF22C2AFC0E0C0F0C082C083C0D0E5312437F8A681E8C05A
:2001D200E0E9C0E0EAC0E0EBC0E0ECC0E0EDC0E0EEC0E0EFC0E074FD2531400BAF310FEF69
:2001F200FE3395E0FF80047E007F008E31E5317005753201801C7401B5310575320280129E
:200212007402B5310575320480087403B53103753208E532553060BED0E0FFD0E0FED0E062
:20023200FDD0E0FCD0E0FBD0E0FAD0E0F9D0E0F8E5312437F98781D0D0D083D082D0F0D016
:20025200E0D2AF3222D310AF01C3C0D0E5312437F98781D0D0D083D082D0F0D0E0D0D09298
:02027200AF22B9
:00000001FF
