:040000000200FE32CA
:03000B00020105EA
:0300110002000EDC
:03000E000200E00D
:20001400753B41E52A60FC20E7F9152AE53E60FC20E7F9153EE53D60FC20E7F9153DD200BD
:2000340010AF02C200853B3A745AB53B067E417F008009AD3B0DEDFE3395E0FF8E3BA200B2
:2000540092AF053D053C052B80B9753F30E52B60FC20E7F9152BE53E60FC20E7F9153EE518
:200074003D60FC20E7F9153DD20110AF02C201853F3A7439B53F067E307F008009AD3F0DD6
:20009400EDFE3395E0FF8E3FA20192AF053D053C052A80B9C2AF438920758DFA759850D296
:2000B4008ED2AFE53C60FC20E7F9153CE53D60FC20E7F9153DD20210AF02C202853A99A22C
:2000D4000292AF053D053E1099D980FB753C00753D01753E01752A00752B01900014120138
:1500F400C590005E1201C50200A80201092222222202012F32CA
:2001090075340075890075A882D28C9000E01201C5858235E5352430F98781D0D0D083D07C
:2001290082D0F0D0E022C2AFC0E0C0F0C082C083C0D0E5352430F8A681E8C0E0E9C0E0EA44
:20014900C0E0EBC0E0ECC0E0EDC0E0EEC0E0EFC0E074FD2535400BAF350FEFFE3395E0FF98
:2001690080047E007F008E35E5357005E53420E01E7401B53505E53420E1147402B5350575
:20018900E53420E20A7403B535C7E53430E3C2D0E0FFD0E0FED0E0FDD0E0FCD0E0FBD0E00A
:2001A900FAD0E0F9D0E0F8E5352430F98781D0D0D083D082D0F0D0E0D2AF3222740FB53486
:2001C900047582FF22D20310AF02C203E53420E0084334017537008025E53420E10843341C
:2001E900027537018018E53420E208433404753702800BE53420E306433408753703858182
:2002090036E537C454F0FF243FF581C082C0835400C0E0C0E0C0E0C0E0E537FFC40354F81C
:20022900F5D0C0D0E5372430F8A681853681A20392AF85378222D20410AF02C204C0E0C092
:20024900F0C082C083C0D0E5352430F8A68174FD2535400BAF350FEFFE3395E0FF80047E64
:20026900007F008E35AF358FF005F07F017E008006EF2FFFEE33FED5F0F7AC347D00EC52C4
:2002890007ED5206EF4E60C6E5352430F98781D0D0D083D082D0F0D0E0A20492AF22D205A2
:2002A90010AF02C205AF358FF005F07401800225E0D5F0FBFF623475390074FC2539402F19
:2002C900AF398FF005F07F017E008006EF2FFFEE33FED5F0F7AC347D00EC5207ED5206EF67
:2002E9004E60058539358007E53904F53980CB7404B539037535FFE5352430F98781D0D00C
:0F030900D083D082D0F0D0E0D2AFA20592AF2245
:00000001FF
