:0300000002006E8D
:03000900020003EF
:0300030002006296
:20000C00753841853836745AB53803D38001C39200400BAF380FEFFE3395E0FF80047E4174
:20002C007F008E38753701E53760D812012380F7758920758DFA759850D28EE53770051247
:20004C00012380F785369975370020990512012380F8C29980E575370090000C12009302DE
:0C006C00003C02007822753400222222A1
:030006007534004E
:20007800900062120093858235E5352430F98781D0D0D083D082D0F0D0E022740FB53404DF
:200098007582FF22753A0074FC253A4041AF3A8FF005F07F017E008006EF2FFFEE33FED53F
:2000B800F0F7AC347D00EC5207ED5206EF4E7017AF3A8FF005F07401800225E0D5F0FBFF7E
:2000D8004234853A398007E53A04F53A80B9E539C454F0FF243FF53D85813B853D81C08208
:2000F800C0837400C0E0C0E0C0E0C0E085D03CE539FFC40354F8F5D0C0D0853CD0E53924C8
:2001180030F8A681853B8185398222C0E0C0F0C082C083C0D0E5352430F8A681C3E5359472
:2001380003920140067E007F008009AD350DEDFE3395E0FF8E35AF358FF005F07F017E00AB
:200158008006EF2FFFEE33FED5F0F7AC347D00EC5207ED5206EF4E60C3E5352430F9878153
:1D017800D0D0D083D082D0F0D0E022E5352430F98781D0D0D083D082D0F0D0E0224D
:00000001FF
