:0300000002006596
:03000600020003F2
:030003000200599F
:20000900753B41E53C600512011180F7853B3A753C01745AB53B067E417F008009AD3B0D99
:20002900EDFE3395E0FF8E3B80D9758920758DFA759850D28EE53C700512011180F7853A3C
:2000490099753C0020990512011180F8C29980E5753C0090000912008A02003302006C2288
:030069002222222E
:20006C0075340090005912008A858235E5352430F98781D0D0D083D082D0F0D0E022740F41
:20008C00B534047582FF2275360074FC25364041AF368FF005F07F017E008006EF2FFFEE70
:2000AC0033FED5F0F7AC347D00EC5207ED5206EF4E7017AF368FF005F07401800225E0D572
:2000CC00F0FBFF42348536388007E53604F53680B9858137E538C454F0FF243FF581C0823B
:2000EC00C0835400C0E0C0E0C0E0C0E0E538FFC40354F8F5D0C0D0E5382430F8A68185370D
:20010C008185388222C0E0C0F0C082C083C0D0E5352430F8A68174FD2535400BAF350FEF07
:20012C00FE3395E0FF80047E007F008E35AF358FF005F07F017E008006EF2FFFEE33FED5DD
:20014C00F0F7AC347D00EC5207ED5206EF4E60C6E5352430F98781D0D0D083D082D0F0D01E
:20016C00E022AF358FF005F07401800225E0D5F0FBFF623475360074FC2536402FAF368F6F
:20018C00F005F07F017E008006EF2FFFEE33FED5F0F7AC347D00EC5207ED5206EF4E600569
:2001AC008536358007E53604F53680CB7404B536037535FFE5352430F98781D0D0D083D0E6
:0601CC0082D0F0D0E02219
:00000001FF
